{"abi":[{"type":"constructor","inputs":[{"name":"_weth","type":"address","internalType":"address"}],"stateMutability":"nonpayable"},{"type":"receive","stateMutability":"payable"},{"type":"function","name":"arbV2V2","inputs":[{"name":"buyPool","type":"address","internalType":"address"},{"name":"sellPool","type":"address","internalType":"address"},{"name":"tokenIn","type":"address","internalType":"address"},{"name":"tokenOut","type":"address","internalType":"address"},{"name":"amountIn","type":"uint256","internalType":"uint256"},{"name":"minProfit","type":"uint256","internalType":"uint256"}],"outputs":[],"stateMutability":"nonpayable"},{"type":"function","name":"arbV2V3","inputs":[{"name":"buyPool","type":"address","internalType":"address"},{"name":"sellPool","type":"address","internalType":"address"},{"name":"tokenIn","type":"address","internalType":"address"},{"name":"tokenOut","type":"address","internalType":"address"},{"name":"amountIn","type":"uint256","internalType":"uint256"},{"name":"minProfit","type":"uint256","internalType":"uint256"}],"outputs":[],"stateMutability":"nonpayable"},{"type":"function","name":"arbV3V2","inputs":[{"name":"buyPool","type":"address","internalType":"address"},{"name":"sellPool","type":"address","internalType":"address"},{"name":"tokenIn","type":"address","internalType":"address"},{"name":"tokenOut","type":"address","internalType":"address"},{"name":"amountIn","type":"uint256","internalType":"uint256"},{"name":"minProfit","type":"uint256","internalType":"uint256"}],"outputs":[],"stateMutability":"nonpayable"},{"type":"function","name":"arbV3V3","inputs":[{"name":"buyPool","type":"address","internalType":"address"},{"name":"sellPool","type":"address","internalType":"address"},{"name":"tokenIn","type":"address","internalType":"address"},{"name":"tokenOut","type":"address","internalType":"address"},{"name":"amountIn","type":"uint256","internalType":"uint256"},{"name":"minProfit","type":"uint256","internalType":"uint256"}],"outputs":[],"stateMutability":"nonpayable"},{"type":"function","name":"owner","inputs":[],"outputs":[{"name":"","type":"address","internalType":"address"}],"stateMutability":"view"},{"type":"function","name":"uniswapV3SwapCallback","inputs":[{"name":"amount0Delta","type":"int256","internalType":"int256"},{"name":"amount1Delta","type":"int256","internalType":"int256"},{"name":"data","type":"bytes","internalType":"bytes"}],"outputs":[],"stateMutability":"nonpayable"},{"type":"function","name":"unwrapETH","inputs":[{"name":"amount","type":"uint256","internalType":"uint256"}],"outputs":[],"stateMutability":"nonpayable"},{"type":"function","name":"weth","inputs":[],"outputs":[{"name":"","type":"address","internalType":"address"}],"stateMutability":"view"},{"type":"function","name":"withdraw","inputs":[{"name":"token","type":"address","internalType":"address"}],"outputs":[],"stateMutability":"nonpayable"},{"type":"function","name":"wrapETH","inputs":[],"outputs":[],"stateMutability":"nonpayable"}],"bytecode":{"object":"0x60c060405234801561000f575f5ffd5b506040516123c73803806123c7833981810160405281019061003191906100fd565b3373ffffffffffffffffffffffffffffffffffffffff1660808173ffffffffffffffffffffffffffffffffffffffff16815250508073ffffffffffffffffffffffffffffffffffffffff1660a08173ffffffffffffffffffffffffffffffffffffffff168152505050610128565b5f5ffd5b5f73ffffffffffffffffffffffffffffffffffffffff82169050919050565b5f6100cc826100a3565b9050919050565b6100dc816100c2565b81146100e6575f5ffd5b50565b5f815190506100f7816100d3565b92915050565b5f602082840312156101125761011161009f565b5b5f61011f848285016100e9565b91505092915050565b60805160a0516122316101965f395f818161078f01528181610db2015261113f01525f81816102230152818161051f015281816107b301528181610abf01528181610b8001528181610c0501528181610d0001528181610d2401528181610e3101526110b101526122315ff3fe608060405260043610610094575f3560e01c80638da5cb5b116100585780638da5cb5b14610169578063a85ef67814610193578063c27edbe6146101a9578063d2a69501146101d1578063fa461e33146101f95761009b565b806328c0b81d1461009f57806338949ca4146100c75780633fc8cef3146100ef57806349f9d9711461011957806351cff8d9146101415761009b565b3661009b57005b5f5ffd5b3480156100aa575f5ffd5b506100c560048036038101906100c09190611827565b610221565b005b3480156100d2575f5ffd5b506100ed60048036038101906100e89190611827565b61051d565b005b3480156100fa575f5ffd5b5061010361078d565b60405161011091906118bf565b60405180910390f35b348015610124575f5ffd5b5061013f600480360381019061013a9190611827565b6107b1565b005b34801561014c575f5ffd5b50610167600480360381019061016291906118d8565b610abd565b005b348015610174575f5ffd5b5061017d610cfe565b60405161018a91906118bf565b60405180910390f35b34801561019e575f5ffd5b506101a7610d22565b005b3480156101b4575f5ffd5b506101cf60048036038101906101ca9190611827565b610e2f565b005b3480156101dc575f5ffd5b506101f760048036038101906101f29190611903565b6110af565b005b348015610204575f5ffd5b5061021f600480360381019061021a91906119c2565b6111c6565b005b7f000000000000000000000000000000000000000000000000000000000000000073ffffffffffffffffffffffffffffffffffffffff163373ffffffffffffffffffffffffffffffffffffffff16146102af576040517f08c379a00000000000000000000000000000000000000000000000000000000081526004016102a690611a8d565b60405180910390fd5b5f8473ffffffffffffffffffffffffffffffffffffffff166370a08231306040518263ffffffff1660e01b81526004016102e991906118bf565b602060405180830381865afa158015610304573d5f5f3e3d5ffd5b505050506040513d601f19601f820116820180604052508101906103289190611abf565b9050610336878686866112e3565b5f8473ffffffffffffffffffffffffffffffffffffffff166370a08231306040518263ffffffff1660e01b815260040161037091906118bf565b602060405180830381865afa15801561038b573d5f5f3e3d5ffd5b505050506040513d601f19601f820116820180604052508101906103af9190611abf565b90505f6103be888789856114ab565b90508573ffffffffffffffffffffffffffffffffffffffff1663a9059cbb89846040518363ffffffff1660e01b81526004016103fb929190611af9565b6020604051808303815f875af1158015610417573d5f5f3e3d5ffd5b505050506040513d601f19601f8201168201806040525081019061043b9190611b55565b5061044888878984611663565b5f8773ffffffffffffffffffffffffffffffffffffffff166370a08231306040518263ffffffff1660e01b815260040161048291906118bf565b602060405180830381865afa15801561049d573d5f5f3e3d5ffd5b505050506040513d601f19601f820116820180604052508101906104c19190611abf565b905084846104cf9190611bad565b811015610511576040517f08c379a000000000000000000000000000000000000000000000000000000000815260040161050890611c2a565b60405180910390fd5b50505050505050505050565b7f000000000000000000000000000000000000000000000000000000000000000073ffffffffffffffffffffffffffffffffffffffff163373ffffffffffffffffffffffffffffffffffffffff16146105ab576040517f08c379a00000000000000000000000000000000000000000000000000000000081526004016105a290611a8d565b60405180910390fd5b5f8473ffffffffffffffffffffffffffffffffffffffff166370a08231306040518263ffffffff1660e01b81526004016105e591906118bf565b602060405180830381865afa158015610600573d5f5f3e3d5ffd5b505050506040513d601f19601f820116820180604052508101906106249190611abf565b9050610632878686866112e3565b5f8473ffffffffffffffffffffffffffffffffffffffff166370a08231306040518263ffffffff1660e01b815260040161066c91906118bf565b602060405180830381865afa158015610687573d5f5f3e3d5ffd5b505050506040513d601f19601f820116820180604052508101906106ab9190611abf565b90506106b9878688846112e3565b5f8673ffffffffffffffffffffffffffffffffffffffff166370a08231306040518263ffffffff1660e01b81526004016106f391906118bf565b602060405180830381865afa15801561070e573d5f5f3e3d5ffd5b505050506040513d601f19601f820116820180604052508101906107329190611abf565b905083836107409190611bad565b811015610782576040517f08c379a000000000000000000000000000000000000000000000000000000000815260040161077990611c2a565b60405180910390fd5b505050505050505050565b7f000000000000000000000000000000000000000000000000000000000000000081565b7f000000000000000000000000000000000000000000000000000000000000000073ffffffffffffffffffffffffffffffffffffffff163373ffffffffffffffffffffffffffffffffffffffff161461083f576040517f08c379a000000000000000000000000000000000000000000000000000000000815260040161083690611a8d565b60405180910390fd5b5f8473ffffffffffffffffffffffffffffffffffffffff166370a08231306040518263ffffffff1660e01b815260040161087991906118bf565b602060405180830381865afa158015610894573d5f5f3e3d5ffd5b505050506040513d601f19601f820116820180604052508101906108b89190611abf565b90505f6108c7888787876114ab565b90508573ffffffffffffffffffffffffffffffffffffffff1663a9059cbb89866040518363ffffffff1660e01b8152600401610904929190611af9565b6020604051808303815f875af1158015610920573d5f5f3e3d5ffd5b505050506040513d601f19601f820116820180604052508101906109449190611b55565b5061095188878784611663565b5f61095e888789856114ab565b90508573ffffffffffffffffffffffffffffffffffffffff1663a9059cbb89846040518363ffffffff1660e01b815260040161099b929190611af9565b6020604051808303815f875af11580156109b7573d5f5f3e3d5ffd5b505050506040513d601f19601f820116820180604052508101906109db9190611b55565b506109e888878984611663565b5f8773ffffffffffffffffffffffffffffffffffffffff166370a08231306040518263ffffffff1660e01b8152600401610a2291906118bf565b602060405180830381865afa158015610a3d573d5f5f3e3d5ffd5b505050506040513d601f19601f82011682018060405250810190610a619190611abf565b90508484610a6f9190611bad565b811015610ab1576040517f08c379a0000000000000000000000000000000000000000000000000000000008152600401610aa890611c2a565b60405180910390fd5b50505050505050505050565b7f000000000000000000000000000000000000000000000000000000000000000073ffffffffffffffffffffffffffffffffffffffff163373ffffffffffffffffffffffffffffffffffffffff1614610b4b576040517f08c379a0000000000000000000000000000000000000000000000000000000008152600401610b4290611a8d565b60405180910390fd5b5f73ffffffffffffffffffffffffffffffffffffffff168173ffffffffffffffffffffffffffffffffffffffff1603610be7577f000000000000000000000000000000000000000000000000000000000000000073ffffffffffffffffffffffffffffffffffffffff166108fc4790811502906040515f60405180830381858888f19350505050158015610be1573d5f5f3e3d5ffd5b50610cfb565b8073ffffffffffffffffffffffffffffffffffffffff1663a9059cbb7f00000000000000000000000000000000000000000000000000000000000000008373ffffffffffffffffffffffffffffffffffffffff166370a08231306040518263ffffffff1660e01b8152600401610c5d91906118bf565b602060405180830381865afa158015610c78573d5f5f3e3d5ffd5b505050506040513d601f19601f82011682018060405250810190610c9c9190611abf565b6040518363ffffffff1660e01b8152600401610cb9929190611af9565b6020604051808303815f875af1158015610cd5573d5f5f3e3d5ffd5b505050506040513d601f19601f82011682018060405250810190610cf99190611b55565b505b50565b7f000000000000000000000000000000000000000000000000000000000000000081565b7f000000000000000000000000000000000000000000000000000000000000000073ffffffffffffffffffffffffffffffffffffffff163373ffffffffffffffffffffffffffffffffffffffff1614610db0576040517f08c379a0000000000000000000000000000000000000000000000000000000008152600401610da790611a8d565b60405180910390fd5b7f000000000000000000000000000000000000000000000000000000000000000073ffffffffffffffffffffffffffffffffffffffff1663d0e30db0476040518263ffffffff1660e01b81526004015f604051808303818588803b158015610e16575f5ffd5b505af1158015610e28573d5f5f3e3d5ffd5b5050505050565b7f000000000000000000000000000000000000000000000000000000000000000073ffffffffffffffffffffffffffffffffffffffff163373ffffffffffffffffffffffffffffffffffffffff1614610ebd576040517f08c379a0000000000000000000000000000000000000000000000000000000008152600401610eb490611a8d565b60405180910390fd5b5f8473ffffffffffffffffffffffffffffffffffffffff166370a08231306040518263ffffffff1660e01b8152600401610ef791906118bf565b602060405180830381865afa158015610f12573d5f5f3e3d5ffd5b505050506040513d601f19601f82011682018060405250810190610f369190611abf565b90505f610f45888787876114ab565b90508573ffffffffffffffffffffffffffffffffffffffff1663a9059cbb89866040518363ffffffff1660e01b8152600401610f82929190611af9565b6020604051808303815f875af1158015610f9e573d5f5f3e3d5ffd5b505050506040513d601f19601f82011682018060405250810190610fc29190611b55565b50610fcf88878784611663565b610fdb878688846112e3565b5f8673ffffffffffffffffffffffffffffffffffffffff166370a08231306040518263ffffffff1660e01b815260040161101591906118bf565b602060405180830381865afa158015611030573d5f5f3e3d5ffd5b505050506040513d601f19601f820116820180604052508101906110549190611abf565b905083836110629190611bad565b8110156110a4576040517f08c379a000000000000000000000000000000000000000000000000000000000815260040161109b90611c2a565b60405180910390fd5b505050505050505050565b7f000000000000000000000000000000000000000000000000000000000000000073ffffffffffffffffffffffffffffffffffffffff163373ffffffffffffffffffffffffffffffffffffffff161461113d576040517f08c379a000000000000000000000000000000000000000000000000000000000815260040161113490611a8d565b60405180910390fd5b7f000000000000000000000000000000000000000000000000000000000000000073ffffffffffffffffffffffffffffffffffffffff16632e1a7d4d826040518263ffffffff1660e01b81526004016111969190611c48565b5f604051808303815f87803b1580156111ad575f5ffd5b505af11580156111bf573d5f5f3e3d5ffd5b5050505050565b5f82828101906111d69190611d3a565b9050806020015173ffffffffffffffffffffffffffffffffffffffff163373ffffffffffffffffffffffffffffffffffffffff161461124a576040517f08c379a000000000000000000000000000000000000000000000000000000000815260040161124190611daf565b60405180910390fd5b5f5f8613611258578461125a565b855b9050815f015173ffffffffffffffffffffffffffffffffffffffff1663a9059cbb33836040518363ffffffff1660e01b815260040161129a929190611af9565b6020604051808303815f875af11580156112b6573d5f5f3e3d5ffd5b505050506040513d601f19601f820116820180604052508101906112da9190611b55565b50505050505050565b5f8473ffffffffffffffffffffffffffffffffffffffff16630dfe16816040518163ffffffff1660e01b8152600401602060405180830381865afa15801561132d573d5f5f3e3d5ffd5b505050506040513d601f19601f820116820180604052508101906113519190611de1565b90505f8173ffffffffffffffffffffffffffffffffffffffff168573ffffffffffffffffffffffffffffffffffffffff161490508573ffffffffffffffffffffffffffffffffffffffff1663128acb08308386856113cf57600173fffd8963efd1fc6a506488495d951d5263988d266113ca9190611e0c565b6113e2565b60016401000276a36113e19190611e53565b5b60405180604001604052808c73ffffffffffffffffffffffffffffffffffffffff1681526020018d73ffffffffffffffffffffffffffffffffffffffff168152506040516020016114339190611ed6565b6040516020818303038152906040526040518663ffffffff1660e01b8152600401611462959493929190611f7c565b60408051808303815f875af115801561147d573d5f5f3e3d5ffd5b505050506040513d601f19601f820116820180604052508101906114a19190611fe8565b5050505050505050565b5f5f5f8673ffffffffffffffffffffffffffffffffffffffff16630902f1ac6040518163ffffffff1660e01b8152600401606060405180830381865afa1580156114f7573d5f5f3e3d5ffd5b505050506040513d601f19601f8201168201806040525081019061151b91906120a2565b50915091505f8773ffffffffffffffffffffffffffffffffffffffff16630dfe16816040518163ffffffff1660e01b8152600401602060405180830381865afa15801561156a573d5f5f3e3d5ffd5b505050506040513d601f19601f8201168201806040525081019061158e9190611de1565b90505f5f8273ffffffffffffffffffffffffffffffffffffffff168973ffffffffffffffffffffffffffffffffffffffff16146115ec57836dffffffffffffffffffffffffffff16856dffffffffffffffffffffffffffff1661160f565b846dffffffffffffffffffffffffffff16846dffffffffffffffffffffffffffff165b915091505f6103e58861162291906120f2565b9050806103e88461163391906120f2565b61163d9190611bad565b828261164991906120f2565b6116539190612160565b9650505050505050949350505050565b5f8473ffffffffffffffffffffffffffffffffffffffff16630dfe16816040518163ffffffff1660e01b8152600401602060405180830381865afa1580156116ad573d5f5f3e3d5ffd5b505050506040513d601f19601f820116820180604052508101906116d19190611de1565b90505f5f8273ffffffffffffffffffffffffffffffffffffffff168573ffffffffffffffffffffffffffffffffffffffff161461170f575f84611712565b835f5b915091508673ffffffffffffffffffffffffffffffffffffffff1663022c0d9f8383306040518463ffffffff1660e01b8152600401611753939291906121b3565b5f604051808303815f87803b15801561176a575f5ffd5b505af115801561177c573d5f5f3e3d5ffd5b5050505050505050505050565b5f604051905090565b5f5ffd5b5f5ffd5b5f73ffffffffffffffffffffffffffffffffffffffff82169050919050565b5f6117c38261179a565b9050919050565b6117d3816117b9565b81146117dd575f5ffd5b50565b5f813590506117ee816117ca565b92915050565b5f819050919050565b611806816117f4565b8114611810575f5ffd5b50565b5f81359050611821816117fd565b92915050565b5f5f5f5f5f5f60c0878903121561184157611840611792565b5b5f61184e89828a016117e0565b965050602061185f89828a016117e0565b955050604061187089828a016117e0565b945050606061188189828a016117e0565b935050608061189289828a01611813565b92505060a06118a389828a01611813565b9150509295509295509295565b6118b9816117b9565b82525050565b5f6020820190506118d25f8301846118b0565b92915050565b5f602082840312156118ed576118ec611792565b5b5f6118fa848285016117e0565b91505092915050565b5f6020828403121561191857611917611792565b5b5f61192584828501611813565b91505092915050565b5f819050919050565b6119408161192e565b811461194a575f5ffd5b50565b5f8135905061195b81611937565b92915050565b5f5ffd5b5f5ffd5b5f5ffd5b5f5f83601f84011261198257611981611961565b5b8235905067ffffffffffffffff81111561199f5761199e611965565b5b6020830191508360018202830111156119bb576119ba611969565b5b9250929050565b5f5f5f5f606085870312156119da576119d9611792565b5b5f6119e78782880161194d565b94505060206119f88782880161194d565b935050604085013567ffffffffffffffff811115611a1957611a18611796565b5b611a258782880161196d565b925092505092959194509250565b5f82825260208201905092915050565b7f6e6f74206f776e657200000000000000000000000000000000000000000000005f82015250565b5f611a77600983611a33565b9150611a8282611a43565b602082019050919050565b5f6020820190508181035f830152611aa481611a6b565b9050919050565b5f81519050611ab9816117fd565b92915050565b5f60208284031215611ad457611ad3611792565b5b5f611ae184828501611aab565b91505092915050565b611af3816117f4565b82525050565b5f604082019050611b0c5f8301856118b0565b611b196020830184611aea565b9392505050565b5f8115159050919050565b611b3481611b20565b8114611b3e575f5ffd5b50565b5f81519050611b4f81611b2b565b92915050565b5f60208284031215611b6a57611b69611792565b5b5f611b7784828501611b41565b91505092915050565b7f4e487b71000000000000000000000000000000000000000000000000000000005f52601160045260245ffd5b5f611bb7826117f4565b9150611bc2836117f4565b9250828201905080821115611bda57611bd9611b80565b5b92915050565b7f6e6f742070726f66697461626c650000000000000000000000000000000000005f82015250565b5f611c14600e83611a33565b9150611c1f82611be0565b602082019050919050565b5f6020820190508181035f830152611c4181611c08565b9050919050565b5f602082019050611c5b5f830184611aea565b92915050565b5f5ffd5b5f601f19601f8301169050919050565b7f4e487b71000000000000000000000000000000000000000000000000000000005f52604160045260245ffd5b611cab82611c65565b810181811067ffffffffffffffff82111715611cca57611cc9611c75565b5b80604052505050565b5f611cdc611789565b9050611ce88282611ca2565b919050565b5f60408284031215611d0257611d01611c61565b5b611d0c6040611cd3565b90505f611d1b848285016117e0565b5f830152506020611d2e848285016117e0565b60208301525092915050565b5f60408284031215611d4f57611d4e611792565b5b5f611d5c84828501611ced565b91505092915050565b7f696e76616c69642063616c6c6261636b000000000000000000000000000000005f82015250565b5f611d99601083611a33565b9150611da482611d65565b602082019050919050565b5f6020820190508181035f830152611dc681611d8d565b9050919050565b5f81519050611ddb816117ca565b92915050565b5f60208284031215611df657611df5611792565b5b5f611e0384828501611dcd565b91505092915050565b5f611e168261179a565b9150611e218361179a565b9250828203905073ffffffffffffffffffffffffffffffffffffffff811115611e4d57611e4c611b80565b5b92915050565b5f611e5d8261179a565b9150611e688361179a565b9250828201905073ffffffffffffffffffffffffffffffffffffffff811115611e9457611e93611b80565b5b92915050565b611ea3816117b9565b82525050565b604082015f820151611ebd5f850182611e9a565b506020820151611ed06020850182611e9a565b50505050565b5f604082019050611ee95f830184611ea9565b92915050565b611ef881611b20565b82525050565b611f078161192e565b82525050565b611f168161179a565b82525050565b5f81519050919050565b5f82825260208201905092915050565b8281835e5f83830152505050565b5f611f4e82611f1c565b611f588185611f26565b9350611f68818560208601611f36565b611f7181611c65565b840191505092915050565b5f60a082019050611f8f5f8301886118b0565b611f9c6020830187611eef565b611fa96040830186611efe565b611fb66060830185611f0d565b8181036080830152611fc88184611f44565b90509695505050505050565b5f81519050611fe281611937565b92915050565b5f5f60408385031215611ffe57611ffd611792565b5b5f61200b85828601611fd4565b925050602061201c85828601611fd4565b9150509250929050565b5f6dffffffffffffffffffffffffffff82169050919050565b61204881612026565b8114612052575f5ffd5b50565b5f815190506120638161203f565b92915050565b5f63ffffffff82169050919050565b61208181612069565b811461208b575f5ffd5b50565b5f8151905061209c81612078565b92915050565b5f5f5f606084860312156120b9576120b8611792565b5b5f6120c686828701612055565b93505060206120d786828701612055565b92505060406120e88682870161208e565b9150509250925092565b5f6120fc826117f4565b9150612107836117f4565b9250828202612115816117f4565b9150828204841483151761212c5761212b611b80565b5b5092915050565b7f4e487b71000000000000000000000000000000000000000000000000000000005f52601260045260245ffd5b5f61216a826117f4565b9150612175836117f4565b92508261218557612184612133565b5b828204905092915050565b50565b5f61219e5f83611f26565b91506121a982612190565b5f82019050919050565b5f6080820190506121c65f830186611aea565b6121d36020830185611aea565b6121e060408301846118b0565b81810360608301526121f181612193565b905094935050505056fea26469706673582212204bfe6f2c84f02193c1ae0c5d3a7de67cfcd31a1f6df7a970442e78963cb2188264736f6c634300081c0033","linkReferences":{}},"methodIdentifiers":{"arbV2V2(address,address,address,address,uint256,uint256)":"49f9d971","arbV2V3(address,address,address,address,uint256,uint256)":"c27edbe6","arbV3V2(address,address,address,address,uint256,uint256)":"28c0b81d","arbV3V3(address,address,address,address,uint256,uint256)":"38949ca4","owner()":"8da5cb5b","uniswapV3SwapCallback(int256,int256,bytes)":"fa461e33","unwrapETH(uint256)":"d2a69501","weth()":"3fc8cef3","withdraw(address)":"51cff8d9","wrapETH()":"a85ef678"},"id":0}