{"abi":[{"type":"constructor","inputs":[{"name":"_weth","type":"address","internalType":"address"}],"stateMutability":"nonpayable"},{"type":"receive","stateMutability":"payable"},{"type":"function","name":"arbV2V2","inputs":[{"name":"buyPool","type":"address","internalType":"address"},{"name":"sellPool","type":"address","internalType":"address"},{"name":"tokenIn","type":"address","internalType":"address"},{"name":"tokenOut","type":"address","internalType":"address"},{"name":"amountIn","type":"uint256","internalType":"uint256"},{"name":"minProfit","type":"uint256","internalType":"uint256"}],"outputs":[],"stateMutability":"nonpayable"},{"type":"function","name":"arbV2V3","inputs":[{"name":"buyPool","type":"address","internalType":"address"},{"name":"sellPool","type":"address","internalType":"address"},{"name":"tokenIn","type":"address","internalType":"address"},{"name":"tokenOut","type":"address","internalType":"address"},{"name":"amountIn","type":"uint256","internalType":"uint256"},{"name":"minProfit","type":"uint256","internalType":"uint256"}],"outputs":[],"stateMutability":"nonpayable"},{"type":"function","name":"arbV3V2","inputs":[{"name":"buyPool","type":"address","internalType":"address"},{"name":"sellPool","type":"address","internalType":"address"},{"name":"tokenIn","type":"address","internalType":"address"},{"name":"tokenOut","type":"address","internalType":"address"},{"name":"amountIn","type":"uint256","internalType":"uint256"},{"name":"minProfit","type":"uint256","internalType":"uint256"}],"outputs":[],"stateMutability":"nonpayable"},{"type":"function","name":"arbV3V3","inputs":[{"name":"buyPool","type":"address","internalType":"address"},{"name":"sellPool","type":"address","internalType":"address"},{"name":"tokenIn","type":"address","internalType":"address"},{"name":"tokenOut","type":"address","internalType":"address"},{"name":"amountIn","type":"uint256","internalType":"uint256"},{"name":"minProfit","type":"uint256","internalType":"uint256"}],"outputs":[],"stateMutability":"nonpayable"},{"type":"function","name":"owner","inputs":[],"outputs":[{"name":"","type":"address","internalType":"address"}],"stateMutability":"view"},{"type":"function","name":"uniswapV3SwapCallback","inputs":[{"name":"amount0Delta","type":"int256","internalType":"int256"},{"name":"amount1Delta","type":"int256","internalType":"int256"},{"name":"data","type":"bytes","internalType":"bytes"}],"outputs":[],"stateMutability":"nonpayable"},{"type":"function","name":"unwrapETH","inputs":[{"name":"amount","type":"uint256","internalType":"uint256"}],"outputs":[],"stateMutability":"nonpayable"},{"type":"function","name":"weth","inputs":[],"outputs":[{"name":"","type":"address","internalType":"address"}],"stateMutability":"view"},{"type":"function","name":"withdraw","inputs":[{"name":"token","type":"address","internalType":"address"}],"outputs":[],"stateMutability":"nonpayable"},{"type":"function","name":"wrapETH","inputs":[],"outputs":[],"stateMutability":"nonpayable"}],"bytecode":{"object":"0x60c060405234801561000f575f5ffd5b50604051612419380380612419833981810160405281019061003191906100fd565b3373ffffffffffffffffffffffffffffffffffffffff1660808173ffffffffffffffffffffffffffffffffffffffff16815250508073ffffffffffffffffffffffffffffffffffffffff1660a08173ffffffffffffffffffffffffffffffffffffffff168152505050610128565b5f5ffd5b5f73ffffffffffffffffffffffffffffffffffffffff82169050919050565b5f6100cc826100a3565b9050919050565b6100dc816100c2565b81146100e6575f5ffd5b50565b5f815190506100f7816100d3565b92915050565b5f602082840312156101125761011161009f565b5b5f61011f848285016100e9565b91505092915050565b60805160a0516122836101965f395f818161078e01528181610daf015261113b01525f81816102230152818161051e015281816107b201528181610abc01528181610b7d01528181610c0201528181610cfd01528181610d2101528181610e2e01526110ad01526122835ff3fe608060405260043610610094575f3560e01c80638da5cb5b116100585780638da5cb5b14610169578063a85ef67814610193578063c27edbe6146101a9578063d2a69501146101d1578063fa461e33146101f95761009b565b806328c0b81d1461009f57806338949ca4146100c75780633fc8cef3146100ef57806349f9d9711461011957806351cff8d9146101415761009b565b3661009b57005b5f5ffd5b3480156100aa575f5ffd5b506100c560048036038101906100c091906118a0565b610221565b005b3480156100d2575f5ffd5b506100ed60048036038101906100e891906118a0565b61051c565b005b3480156100fa575f5ffd5b5061010361078c565b6040516101109190611938565b60405180910390f35b348015610124575f5ffd5b5061013f600480360381019061013a91906118a0565b6107b0565b005b34801561014c575f5ffd5b5061016760048036038101906101629190611951565b610aba565b005b348015610174575f5ffd5b5061017d610cfb565b60405161018a9190611938565b60405180910390f35b34801561019e575f5ffd5b506101a7610d1f565b005b3480156101b4575f5ffd5b506101cf60048036038101906101ca91906118a0565b610e2c565b005b3480156101dc575f5ffd5b506101f760048036038101906101f2919061197c565b6110ab565b005b348015610204575f5ffd5b5061021f600480360381019061021a9190611a3b565b6111c2565b005b7f000000000000000000000000000000000000000000000000000000000000000073ffffffffffffffffffffffffffffffffffffffff163373ffffffffffffffffffffffffffffffffffffffff16146102af576040517f08c379a00000000000000000000000000000000000000000000000000000000081526004016102a690611b06565b60405180910390fd5b5f8473ffffffffffffffffffffffffffffffffffffffff166370a08231306040518263ffffffff1660e01b81526004016102e99190611938565b602060405180830381865afa158015610304573d5f5f3e3d5ffd5b505050506040513d601f19601f820116820180604052508101906103289190611b38565b9050610336878686866112fb565b5f8473ffffffffffffffffffffffffffffffffffffffff166370a08231306040518263ffffffff1660e01b81526004016103709190611938565b602060405180830381865afa15801561038b573d5f5f3e3d5ffd5b505050506040513d601f19601f820116820180604052508101906103af9190611b38565b90505f6103be88878985611525565b90508573ffffffffffffffffffffffffffffffffffffffff1663a9059cbb89846040518363ffffffff1660e01b81526004016103fb929190611b72565b6020604051808303815f875af1158015610417573d5f5f3e3d5ffd5b505050506040513d601f19601f8201168201806040525081019061043b9190611bce565b506104478888836116dd565b5f8773ffffffffffffffffffffffffffffffffffffffff166370a08231306040518263ffffffff1660e01b81526004016104819190611938565b602060405180830381865afa15801561049c573d5f5f3e3d5ffd5b505050506040513d601f19601f820116820180604052508101906104c09190611b38565b905084846104ce9190611c26565b811015610510576040517f08c379a000000000000000000000000000000000000000000000000000000000815260040161050790611ca3565b60405180910390fd5b50505050505050505050565b7f000000000000000000000000000000000000000000000000000000000000000073ffffffffffffffffffffffffffffffffffffffff163373ffffffffffffffffffffffffffffffffffffffff16146105aa576040517f08c379a00000000000000000000000000000000000000000000000000000000081526004016105a190611b06565b60405180910390fd5b5f8473ffffffffffffffffffffffffffffffffffffffff166370a08231306040518263ffffffff1660e01b81526004016105e49190611938565b602060405180830381865afa1580156105ff573d5f5f3e3d5ffd5b505050506040513d601f19601f820116820180604052508101906106239190611b38565b9050610631878686866112fb565b5f8473ffffffffffffffffffffffffffffffffffffffff166370a08231306040518263ffffffff1660e01b815260040161066b9190611938565b602060405180830381865afa158015610686573d5f5f3e3d5ffd5b505050506040513d601f19601f820116820180604052508101906106aa9190611b38565b90506106b8878688846112fb565b5f8673ffffffffffffffffffffffffffffffffffffffff166370a08231306040518263ffffffff1660e01b81526004016106f29190611938565b602060405180830381865afa15801561070d573d5f5f3e3d5ffd5b505050506040513d601f19601f820116820180604052508101906107319190611b38565b9050838361073f9190611c26565b811015610781576040517f08c379a000000000000000000000000000000000000000000000000000000000815260040161077890611ca3565b60405180910390fd5b505050505050505050565b7f000000000000000000000000000000000000000000000000000000000000000081565b7f000000000000000000000000000000000000000000000000000000000000000073ffffffffffffffffffffffffffffffffffffffff163373ffffffffffffffffffffffffffffffffffffffff161461083e576040517f08c379a000000000000000000000000000000000000000000000000000000000815260040161083590611b06565b60405180910390fd5b5f8473ffffffffffffffffffffffffffffffffffffffff166370a08231306040518263ffffffff1660e01b81526004016108789190611938565b602060405180830381865afa158015610893573d5f5f3e3d5ffd5b505050506040513d601f19601f820116820180604052508101906108b79190611b38565b90505f6108c688878787611525565b90508573ffffffffffffffffffffffffffffffffffffffff1663a9059cbb89866040518363ffffffff1660e01b8152600401610903929190611b72565b6020604051808303815f875af115801561091f573d5f5f3e3d5ffd5b505050506040513d601f19601f820116820180604052508101906109439190611bce565b5061094f8886836116dd565b5f61095c88878985611525565b90508573ffffffffffffffffffffffffffffffffffffffff1663a9059cbb89846040518363ffffffff1660e01b8152600401610999929190611b72565b6020604051808303815f875af11580156109b5573d5f5f3e3d5ffd5b505050506040513d601f19601f820116820180604052508101906109d99190611bce565b506109e58888836116dd565b5f8773ffffffffffffffffffffffffffffffffffffffff166370a08231306040518263ffffffff1660e01b8152600401610a1f9190611938565b602060405180830381865afa158015610a3a573d5f5f3e3d5ffd5b505050506040513d601f19601f82011682018060405250810190610a5e9190611b38565b90508484610a6c9190611c26565b811015610aae576040517f08c379a0000000000000000000000000000000000000000000000000000000008152600401610aa590611ca3565b60405180910390fd5b50505050505050505050565b7f000000000000000000000000000000000000000000000000000000000000000073ffffffffffffffffffffffffffffffffffffffff163373ffffffffffffffffffffffffffffffffffffffff1614610b48576040517f08c379a0000000000000000000000000000000000000000000000000000000008152600401610b3f90611b06565b60405180910390fd5b5f73ffffffffffffffffffffffffffffffffffffffff168173ffffffffffffffffffffffffffffffffffffffff1603610be4577f000000000000000000000000000000000000000000000000000000000000000073ffffffffffffffffffffffffffffffffffffffff166108fc4790811502906040515f60405180830381858888f19350505050158015610bde573d5f5f3e3d5ffd5b50610cf8565b8073ffffffffffffffffffffffffffffffffffffffff1663a9059cbb7f00000000000000000000000000000000000000000000000000000000000000008373ffffffffffffffffffffffffffffffffffffffff166370a08231306040518263ffffffff1660e01b8152600401610c5a9190611938565b602060405180830381865afa158015610c75573d5f5f3e3d5ffd5b505050506040513d601f19601f82011682018060405250810190610c999190611b38565b6040518363ffffffff1660e01b8152600401610cb6929190611b72565b6020604051808303815f875af1158015610cd2573d5f5f3e3d5ffd5b505050506040513d601f19601f82011682018060405250810190610cf69190611bce565b505b50565b7f000000000000000000000000000000000000000000000000000000000000000081565b7f000000000000000000000000000000000000000000000000000000000000000073ffffffffffffffffffffffffffffffffffffffff163373ffffffffffffffffffffffffffffffffffffffff1614610dad576040517f08c379a0000000000000000000000000000000000000000000000000000000008152600401610da490611b06565b60405180910390fd5b7f000000000000000000000000000000000000000000000000000000000000000073ffffffffffffffffffffffffffffffffffffffff1663d0e30db0476040518263ffffffff1660e01b81526004015f604051808303818588803b158015610e13575f5ffd5b505af1158015610e25573d5f5f3e3d5ffd5b5050505050565b7f000000000000000000000000000000000000000000000000000000000000000073ffffffffffffffffffffffffffffffffffffffff163373ffffffffffffffffffffffffffffffffffffffff1614610eba576040517f08c379a0000000000000000000000000000000000000000000000000000000008152600401610eb190611b06565b60405180910390fd5b5f8473ffffffffffffffffffffffffffffffffffffffff166370a08231306040518263ffffffff1660e01b8152600401610ef49190611938565b602060405180830381865afa158015610f0f573d5f5f3e3d5ffd5b505050506040513d601f19601f82011682018060405250810190610f339190611b38565b90505f610f4288878787611525565b90508573ffffffffffffffffffffffffffffffffffffffff1663a9059cbb89866040518363ffffffff1660e01b8152600401610f7f929190611b72565b6020604051808303815f875af1158015610f9b573d5f5f3e3d5ffd5b505050506040513d601f19601f82011682018060405250810190610fbf9190611bce565b50610fcb8886836116dd565b610fd7878688846112fb565b5f8673ffffffffffffffffffffffffffffffffffffffff166370a08231306040518263ffffffff1660e01b81526004016110119190611938565b602060405180830381865afa15801561102c573d5f5f3e3d5ffd5b505050506040513d601f19601f820116820180604052508101906110509190611b38565b9050838361105e9190611c26565b8110156110a0576040517f08c379a000000000000000000000000000000000000000000000000000000000815260040161109790611ca3565b60405180910390fd5b505050505050505050565b7f000000000000000000000000000000000000000000000000000000000000000073ffffffffffffffffffffffffffffffffffffffff163373ffffffffffffffffffffffffffffffffffffffff1614611139576040517f08c379a000000000000000000000000000000000000000000000000000000000815260040161113090611b06565b60405180910390fd5b7f000000000000000000000000000000000000000000000000000000000000000073ffffffffffffffffffffffffffffffffffffffff16632e1a7d4d826040518263ffffffff1660e01b81526004016111929190611cc1565b5f604051808303815f87803b1580156111a9575f5ffd5b505af11580156111bb573d5f5f3e3d5ffd5b5050505050565b5f5f9054906101000a900473ffffffffffffffffffffffffffffffffffffffff1673ffffffffffffffffffffffffffffffffffffffff163373ffffffffffffffffffffffffffffffffffffffff1614611250576040517f08c379a000000000000000000000000000000000000000000000000000000000815260040161124790611d24565b60405180910390fd5b5f82828101906112609190611e07565b90505f5f86136112705784611272565b855b9050815f015173ffffffffffffffffffffffffffffffffffffffff1663a9059cbb33836040518363ffffffff1660e01b81526004016112b2929190611b72565b6020604051808303815f875af11580156112ce573d5f5f3e3d5ffd5b505050506040513d601f19601f820116820180604052508101906112f29190611bce565b50505050505050565b5f8473ffffffffffffffffffffffffffffffffffffffff16630dfe16816040518163ffffffff1660e01b8152600401602060405180830381865afa158015611345573d5f5f3e3d5ffd5b505050506040513d601f19601f820116820180604052508101906113699190611e46565b90505f8173ffffffffffffffffffffffffffffffffffffffff168573ffffffffffffffffffffffffffffffffffffffff16149050855f5f6101000a81548173ffffffffffffffffffffffffffffffffffffffff021916908373ffffffffffffffffffffffffffffffffffffffff1602179055508573ffffffffffffffffffffffffffffffffffffffff1663128acb083083868561142657600173fffd8963efd1fc6a506488495d951d5263988d266114219190611e71565b611439565b60016401000276a36114389190611eb8565b5b60405180602001604052808c73ffffffffffffffffffffffffffffffffffffffff1681525060405160200161146e9190611f28565b6040516020818303038152906040526040518663ffffffff1660e01b815260040161149d959493929190611fce565b60408051808303815f875af11580156114b8573d5f5f3e3d5ffd5b505050506040513d601f19601f820116820180604052508101906114dc919061203a565b50505f5f5f6101000a81548173ffffffffffffffffffffffffffffffffffffffff021916908373ffffffffffffffffffffffffffffffffffffffff160217905550505050505050565b5f5f5f8673ffffffffffffffffffffffffffffffffffffffff16630902f1ac6040518163ffffffff1660e01b8152600401606060405180830381865afa158015611571573d5f5f3e3d5ffd5b505050506040513d601f19601f8201168201806040525081019061159591906120f4565b50915091505f8773ffffffffffffffffffffffffffffffffffffffff16630dfe16816040518163ffffffff1660e01b8152600401602060405180830381865afa1580156115e4573d5f5f3e3d5ffd5b505050506040513d601f19601f820116820180604052508101906116089190611e46565b90505f5f8273ffffffffffffffffffffffffffffffffffffffff168973ffffffffffffffffffffffffffffffffffffffff161461166657836dffffffffffffffffffffffffffff16856dffffffffffffffffffffffffffff16611689565b846dffffffffffffffffffffffffffff16846dffffffffffffffffffffffffffff165b915091505f6103e58861169c9190612144565b9050806103e8846116ad9190612144565b6116b79190611c26565b82826116c39190612144565b6116cd91906121b2565b9650505050505050949350505050565b5f8373ffffffffffffffffffffffffffffffffffffffff16630dfe16816040518163ffffffff1660e01b8152600401602060405180830381865afa158015611727573d5f5f3e3d5ffd5b505050506040513d601f19601f8201168201806040525081019061174b9190611e46565b90505f5f8273ffffffffffffffffffffffffffffffffffffffff168573ffffffffffffffffffffffffffffffffffffffff1614611789575f8461178c565b835f5b915091508573ffffffffffffffffffffffffffffffffffffffff1663022c0d9f8383306040518463ffffffff1660e01b81526004016117cd93929190612205565b5f604051808303815f87803b1580156117e4575f5ffd5b505af11580156117f6573d5f5f3e3d5ffd5b50505050505050505050565b5f604051905090565b5f5ffd5b5f5ffd5b5f73ffffffffffffffffffffffffffffffffffffffff82169050919050565b5f61183c82611813565b9050919050565b61184c81611832565b8114611856575f5ffd5b50565b5f8135905061186781611843565b92915050565b5f819050919050565b61187f8161186d565b8114611889575f5ffd5b50565b5f8135905061189a81611876565b92915050565b5f5f5f5f5f5f60c087890312156118ba576118b961180b565b5b5f6118c789828a01611859565b96505060206118d889828a01611859565b95505060406118e989828a01611859565b94505060606118fa89828a01611859565b935050608061190b89828a0161188c565b92505060a061191c89828a0161188c565b9150509295509295509295565b61193281611832565b82525050565b5f60208201905061194b5f830184611929565b92915050565b5f602082840312156119665761196561180b565b5b5f61197384828501611859565b91505092915050565b5f602082840312156119915761199061180b565b5b5f61199e8482850161188c565b91505092915050565b5f819050919050565b6119b9816119a7565b81146119c3575f5ffd5b50565b5f813590506119d4816119b0565b92915050565b5f5ffd5b5f5ffd5b5f5ffd5b5f5f83601f8401126119fb576119fa6119da565b5b8235905067ffffffffffffffff811115611a1857611a176119de565b5b602083019150836001820283011115611a3457611a336119e2565b5b9250929050565b5f5f5f5f60608587031215611a5357611a5261180b565b5b5f611a60878288016119c6565b9450506020611a71878288016119c6565b935050604085013567ffffffffffffffff811115611a9257611a9161180f565b5b611a9e878288016119e6565b925092505092959194509250565b5f82825260208201905092915050565b7f6e6f74206f776e657200000000000000000000000000000000000000000000005f82015250565b5f611af0600983611aac565b9150611afb82611abc565b602082019050919050565b5f6020820190508181035f830152611b1d81611ae4565b9050919050565b5f81519050611b3281611876565b92915050565b5f60208284031215611b4d57611b4c61180b565b5b5f611b5a84828501611b24565b91505092915050565b611b6c8161186d565b82525050565b5f604082019050611b855f830185611929565b611b926020830184611b63565b9392505050565b5f8115159050919050565b611bad81611b99565b8114611bb7575f5ffd5b50565b5f81519050611bc881611ba4565b92915050565b5f60208284031215611be357611be261180b565b5b5f611bf084828501611bba565b91505092915050565b7f4e487b71000000000000000000000000000000000000000000000000000000005f52601160045260245ffd5b5f611c308261186d565b9150611c3b8361186d565b9250828201905080821115611c5357611c52611bf9565b5b92915050565b7f6e6f742070726f66697461626c650000000000000000000000000000000000005f82015250565b5f611c8d600e83611aac565b9150611c9882611c59565b602082019050919050565b5f6020820190508181035f830152611cba81611c81565b9050919050565b5f602082019050611cd45f830184611b63565b92915050565b7f696e76616c69642063616c6c6261636b000000000000000000000000000000005f82015250565b5f611d0e601083611aac565b9150611d1982611cda565b602082019050919050565b5f6020820190508181035f830152611d3b81611d02565b9050919050565b5f5ffd5b5f601f19601f8301169050919050565b7f4e487b71000000000000000000000000000000000000000000000000000000005f52604160045260245ffd5b611d8c82611d46565b810181811067ffffffffffffffff82111715611dab57611daa611d56565b5b80604052505050565b5f611dbd611802565b9050611dc98282611d83565b919050565b5f60208284031215611de357611de2611d42565b5b611ded6020611db4565b90505f611dfc84828501611859565b5f8301525092915050565b5f60208284031215611e1c57611e1b61180b565b5b5f611e2984828501611dce565b91505092915050565b5f81519050611e4081611843565b92915050565b5f60208284031215611e5b57611e5a61180b565b5b5f611e6884828501611e32565b91505092915050565b5f611e7b82611813565b9150611e8683611813565b9250828203905073ffffffffffffffffffffffffffffffffffffffff811115611eb257611eb1611bf9565b5b92915050565b5f611ec282611813565b9150611ecd83611813565b9250828201905073ffffffffffffffffffffffffffffffffffffffff811115611ef957611ef8611bf9565b5b92915050565b611f0881611832565b82525050565b602082015f820151611f225f850182611eff565b50505050565b5f602082019050611f3b5f830184611f0e565b92915050565b611f4a81611b99565b82525050565b611f59816119a7565b82525050565b611f6881611813565b82525050565b5f81519050919050565b5f82825260208201905092915050565b8281835e5f83830152505050565b5f611fa082611f6e565b611faa8185611f78565b9350611fba818560208601611f88565b611fc381611d46565b840191505092915050565b5f60a082019050611fe15f830188611929565b611fee6020830187611f41565b611ffb6040830186611f50565b6120086060830185611f5f565b818103608083015261201a8184611f96565b90509695505050505050565b5f81519050612034816119b0565b92915050565b5f5f604083850312156120505761204f61180b565b5b5f61205d85828601612026565b925050602061206e85828601612026565b9150509250929050565b5f6dffffffffffffffffffffffffffff82169050919050565b61209a81612078565b81146120a4575f5ffd5b50565b5f815190506120b581612091565b92915050565b5f63ffffffff82169050919050565b6120d3816120bb565b81146120dd575f5ffd5b50565b5f815190506120ee816120ca565b92915050565b5f5f5f6060848603121561210b5761210a61180b565b5b5f612118868287016120a7565b9350506020612129868287016120a7565b925050604061213a868287016120e0565b9150509250925092565b5f61214e8261186d565b91506121598361186d565b92508282026121678161186d565b9150828204841483151761217e5761217d611bf9565b5b5092915050565b7f4e487b71000000000000000000000000000000000000000000000000000000005f52601260045260245ffd5b5f6121bc8261186d565b91506121c78361186d565b9250826121d7576121d6612185565b5b828204905092915050565b50565b5f6121f05f83611f78565b91506121fb826121e2565b5f82019050919050565b5f6080820190506122185f830186611b63565b6122256020830185611b63565b6122326040830184611929565b8181036060830152612243816121e5565b905094935050505056fea264697066735822122049afad65f700da2165a35b40e7400c1fe32f24dc81c8821b4e1e394d06cbd56064736f6c634300081c0033","linkReferences":{}},"methodIdentifiers":{"arbV2V2(address,address,address,address,uint256,uint256)":"49f9d971","arbV2V3(address,address,address,address,uint256,uint256)":"c27edbe6","arbV3V2(address,address,address,address,uint256,uint256)":"28c0b81d","arbV3V3(address,address,address,address,uint256,uint256)":"38949ca4","owner()":"8da5cb5b","uniswapV3SwapCallback(int256,int256,bytes)":"fa461e33","unwrapETH(uint256)":"d2a69501","weth()":"3fc8cef3","withdraw(address)":"51cff8d9","wrapETH()":"a85ef678"},"id":0}